{
  "contractName": "TwitterClone",
  "abi": [
    {
      "anonymous": false,
      "inputs": [
        {
          "indexed": false,
          "internalType": "uint256",
          "name": "tweetId",
          "type": "uint256"
        },
        {
          "indexed": false,
          "internalType": "string",
          "name": "tweetText",
          "type": "string"
        },
        {
          "indexed": false,
          "internalType": "address",
          "name": "owner",
          "type": "address"
        }
      ],
      "name": "NewTweet",
      "type": "event"
    },
    {
      "anonymous": false,
      "inputs": [
        {
          "indexed": true,
          "internalType": "address",
          "name": "previousOwner",
          "type": "address"
        },
        {
          "indexed": true,
          "internalType": "address",
          "name": "newOwner",
          "type": "address"
        }
      ],
      "name": "OwnershipTransferred",
      "type": "event"
    },
    {
      "inputs": [],
      "name": "owner",
      "outputs": [
        {
          "internalType": "address",
          "name": "",
          "type": "address"
        }
      ],
      "stateMutability": "view",
      "type": "function"
    },
    {
      "inputs": [],
      "name": "renounceOwnership",
      "outputs": [],
      "stateMutability": "nonpayable",
      "type": "function"
    },
    {
      "inputs": [
        {
          "internalType": "address",
          "name": "newOwner",
          "type": "address"
        }
      ],
      "name": "transferOwnership",
      "outputs": [],
      "stateMutability": "nonpayable",
      "type": "function"
    },
    {
      "inputs": [
        {
          "internalType": "uint256",
          "name": "",
          "type": "uint256"
        }
      ],
      "name": "tweetToOwner",
      "outputs": [
        {
          "internalType": "address",
          "name": "",
          "type": "address"
        }
      ],
      "stateMutability": "view",
      "type": "function"
    },
    {
      "inputs": [
        {
          "internalType": "uint256",
          "name": "",
          "type": "uint256"
        }
      ],
      "name": "tweets",
      "outputs": [
        {
          "internalType": "string",
          "name": "tweetText",
          "type": "string"
        },
        {
          "internalType": "bool",
          "name": "deleted",
          "type": "bool"
        }
      ],
      "stateMutability": "view",
      "type": "function"
    },
    {
      "inputs": [
        {
          "internalType": "string",
          "name": "_tweetText",
          "type": "string"
        }
      ],
      "name": "createTweet",
      "outputs": [],
      "stateMutability": "nonpayable",
      "type": "function"
    },
    {
      "inputs": [
        {
          "internalType": "uint256",
          "name": "_tweetId",
          "type": "uint256"
        }
      ],
      "name": "readTweet",
      "outputs": [
        {
          "internalType": "address",
          "name": "owner",
          "type": "address"
        },
        {
          "internalType": "string",
          "name": "tweetText",
          "type": "string"
        }
      ],
      "stateMutability": "view",
      "type": "function"
    },
    {
      "inputs": [
        {
          "internalType": "uint256",
          "name": "_tweetId",
          "type": "uint256"
        },
        {
          "internalType": "string",
          "name": "_newText",
          "type": "string"
        }
      ],
      "name": "editTweet",
      "outputs": [],
      "stateMutability": "nonpayable",
      "type": "function"
    },
    {
      "inputs": [
        {
          "internalType": "uint256",
          "name": "_tweetId",
          "type": "uint256"
        }
      ],
      "name": "deleteTweet",
      "outputs": [],
      "stateMutability": "nonpayable",
      "type": "function"
    },
    {
      "inputs": [],
      "name": "getTweetsLength",
      "outputs": [
        {
          "internalType": "uint256",
          "name": "count",
          "type": "uint256"
        }
      ],
      "stateMutability": "view",
      "type": "function"
    },
    {
      "inputs": [
        {
          "internalType": "address",
          "name": "_owner",
          "type": "address"
        }
      ],
      "name": "getTweetsByOwner",
      "outputs": [
        {
          "internalType": "uint256[]",
          "name": "",
          "type": "uint256[]"
        }
      ],
      "stateMutability": "view",
      "type": "function"
    }
  ],
  "bytecode": "0x608060405234801561001057600080fd5b5060006100216100c460201b60201c565b9050806000806101000a81548173ffffffffffffffffffffffffffffffffffffffff021916908373ffffffffffffffffffffffffffffffffffffffff1602179055508073ffffffffffffffffffffffffffffffffffffffff16600073ffffffffffffffffffffffffffffffffffffffff167f8be0079c531659141344cd1fd0a4f28419497f9722a3daafe3b4186f6b6457e060405160405180910390a3506100cc565b600033905090565b611615806100db6000396000f3fe608060405234801561001057600080fd5b50600436106100a95760003560e01c8063715018a611610071578063715018a6146101795780637c9cd2bc146101835780638da5cb5b1461019f578063e8d857b0146101bd578063eae9e135146101ee578063f2fde38b1461020a576100a9565b806341e0d306146100ae5780634508726b146100de578063459305a3146100fc5780635775912a1461012d578063637b958d14610149575b600080fd5b6100c860048036038101906100c39190610ea4565b610226565b6040516100d59190611098565b60405180910390f35b6100e6610259565b6040516100f391906111b5565b60405180910390f35b61011660048036038101906101119190610ea4565b610266565b6040516101249291906110b3565b60405180910390f35b61014760048036038101906101429190610ea4565b6103fc565b005b610163600480360381019061015e9190610e3a565b610505565b60405161017091906110e3565b60405180910390f35b6101816106a4565b005b61019d60048036038101906101989190610e63565b6107de565b005b6101a761095b565b6040516101b49190611098565b60405180910390f35b6101d760048036038101906101d29190610ea4565b610984565b6040516101e5929190611105565b60405180910390f35b61020860048036038101906102039190610ecd565b610a4d565b005b610224600480360381019061021f9190610e3a565b610b54565b005b60026020528060005260406000206000915054906101000a900473ffffffffffffffffffffffffffffffffffffffff1681565b6000600180549050905090565b600060606000600184815481106102a6577f4e487b7100000000000000000000000000000000000000000000000000000000600052603260045260246000fd5b90600052602060002090600202016040518060400160405290816000820180546102cf90611377565b80601f01602080910402602001604051908101604052809291908181526020018280546102fb90611377565b80156103485780601f1061031d57610100808354040283529160200191610348565b820191906000526020600020905b81548152906001019060200180831161032b57829003601f168201915b505050505081526020016001820160009054906101000a900460ff16151515158152505090506000151581602001511515146103b9576040517f08c379a00000000000000000000000000000000000000000000000000000000081526004016103b090611195565b60405180910390fd5b6002600085815260200190815260200160002060009054906101000a900473ffffffffffffffffffffffffffffffffffffffff1681600001519250925050915091565b803373ffffffffffffffffffffffffffffffffffffffff166002600083815260200190815260200160002060009054906101000a900473ffffffffffffffffffffffffffffffffffffffff1673ffffffffffffffffffffffffffffffffffffffff161461049e576040517f08c379a000000000000000000000000000000000000000000000000000000000815260040161049590611155565b60405180910390fd5b60018083815481106104d9577f4e487b7100000000000000000000000000000000000000000000000000000000600052603260045260246000fd5b906000526020600020906002020160010160006101000a81548160ff0219169083151502179055505050565b60606000600360008473ffffffffffffffffffffffffffffffffffffffff1673ffffffffffffffffffffffffffffffffffffffff1681526020019081526020016000205467ffffffffffffffff811115610588577f4e487b7100000000000000000000000000000000000000000000000000000000600052604160045260246000fd5b6040519080825280602002602001820160405280156105b65781602001602082028036833780820191505090505b5090506000805b600180549050811015610699578473ffffffffffffffffffffffffffffffffffffffff166002600083815260200190815260200160002060009054906101000a900473ffffffffffffffffffffffffffffffffffffffff1673ffffffffffffffffffffffffffffffffffffffff161415610686578083838151811061066b577f4e487b7100000000000000000000000000000000000000000000000000000000600052603260045260246000fd5b6020026020010181815250508180610682906113da565b9250505b8080610691906113da565b9150506105bd565b508192505050919050565b6106ac610cfd565b73ffffffffffffffffffffffffffffffffffffffff166106ca61095b565b73ffffffffffffffffffffffffffffffffffffffff1614610720576040517f08c379a000000000000000000000000000000000000000000000000000000000815260040161071790611175565b60405180910390fd5b600073ffffffffffffffffffffffffffffffffffffffff1660008054906101000a900473ffffffffffffffffffffffffffffffffffffffff1673ffffffffffffffffffffffffffffffffffffffff167f8be0079c531659141344cd1fd0a4f28419497f9722a3daafe3b4186f6b6457e060405160405180910390a360008060006101000a81548173ffffffffffffffffffffffffffffffffffffffff021916908373ffffffffffffffffffffffffffffffffffffffff160217905550565b60016040518060400160405280838152602001600015158152509080600181540180825580915050600190039060005260206000209060020201600090919091909150600082015181600001908051906020019061083d929190610d05565b5060208201518160010160006101000a81548160ff021916908315150217905550505060006001808054905061087391906112b9565b9050336002600083815260200190815260200160002060006101000a81548173ffffffffffffffffffffffffffffffffffffffff021916908373ffffffffffffffffffffffffffffffffffffffff160217905550600360003373ffffffffffffffffffffffffffffffffffffffff1673ffffffffffffffffffffffffffffffffffffffff1681526020019081526020016000206000815480929190610917906113da565b91905055507fc8e2844f61fc79ed0959e875976db2e524c8d703f4d52bfc86c73627b63d6e7b81833360405161094f939291906111d0565b60405180910390a15050565b60008060009054906101000a900473ffffffffffffffffffffffffffffffffffffffff16905090565b6001818154811061099457600080fd5b90600052602060002090600202016000915090508060000180546109b790611377565b80601f01602080910402602001604051908101604052809291908181526020018280546109e390611377565b8015610a305780601f10610a0557610100808354040283529160200191610a30565b820191906000526020600020905b815481529060010190602001808311610a1357829003601f168201915b5050505050908060010160009054906101000a900460ff16905082565b813373ffffffffffffffffffffffffffffffffffffffff166002600083815260200190815260200160002060009054906101000a900473ffffffffffffffffffffffffffffffffffffffff1673ffffffffffffffffffffffffffffffffffffffff1614610aef576040517f08c379a0000000000000000000000000000000000000000000000000000000008152600401610ae690611155565b60405180910390fd5b8160018481548110610b2a577f4e487b7100000000000000000000000000000000000000000000000000000000600052603260045260246000fd5b90600052602060002090600202016000019080519060200190610b4e929190610d05565b50505050565b610b5c610cfd565b73ffffffffffffffffffffffffffffffffffffffff16610b7a61095b565b73ffffffffffffffffffffffffffffffffffffffff1614610bd0576040517f08c379a0000000000000000000000000000000000000000000000000000000008152600401610bc790611175565b60405180910390fd5b600073ffffffffffffffffffffffffffffffffffffffff168173ffffffffffffffffffffffffffffffffffffffff161415610c40576040517f08c379a0000000000000000000000000000000000000000000000000000000008152600401610c3790611135565b60405180910390fd5b8073ffffffffffffffffffffffffffffffffffffffff1660008054906101000a900473ffffffffffffffffffffffffffffffffffffffff1673ffffffffffffffffffffffffffffffffffffffff167f8be0079c531659141344cd1fd0a4f28419497f9722a3daafe3b4186f6b6457e060405160405180910390a3806000806101000a81548173ffffffffffffffffffffffffffffffffffffffff021916908373ffffffffffffffffffffffffffffffffffffffff16021790555050565b600033905090565b828054610d1190611377565b90600052602060002090601f016020900481019282610d335760008555610d7a565b82601f10610d4c57805160ff1916838001178555610d7a565b82800160010185558215610d7a579182015b82811115610d79578251825591602001919060010190610d5e565b5b509050610d879190610d8b565b5090565b5b80821115610da4576000816000905550600101610d8c565b5090565b6000610dbb610db684611233565b61120e565b905082815260208101848484011115610dd357600080fd5b610dde848285611335565b509392505050565b600081359050610df5816115b1565b92915050565b600082601f830112610e0c57600080fd5b8135610e1c848260208601610da8565b91505092915050565b600081359050610e34816115c8565b92915050565b600060208284031215610e4c57600080fd5b6000610e5a84828501610de6565b91505092915050565b600060208284031215610e7557600080fd5b600082013567ffffffffffffffff811115610e8f57600080fd5b610e9b84828501610dfb565b91505092915050565b600060208284031215610eb657600080fd5b6000610ec484828501610e25565b91505092915050565b60008060408385031215610ee057600080fd5b6000610eee85828601610e25565b925050602083013567ffffffffffffffff811115610f0b57600080fd5b610f1785828601610dfb565b9150509250929050565b6000610f2d838361107a565b60208301905092915050565b610f42816112ed565b82525050565b6000610f5382611274565b610f5d8185611297565b9350610f6883611264565b8060005b83811015610f99578151610f808882610f21565b9750610f8b8361128a565b925050600181019050610f6c565b5085935050505092915050565b610faf816112ff565b82525050565b6000610fc08261127f565b610fca81856112a8565b9350610fda818560208601611344565b610fe3816114b0565b840191505092915050565b6000610ffb6026836112a8565b9150611006826114c1565b604082019050919050565b600061101e603b836112a8565b915061102982611510565b604082019050919050565b60006110416020836112a8565b915061104c8261155f565b602082019050919050565b60006110646016836112a8565b915061106f82611588565b602082019050919050565b6110838161132b565b82525050565b6110928161132b565b82525050565b60006020820190506110ad6000830184610f39565b92915050565b60006040820190506110c86000830185610f39565b81810360208301526110da8184610fb5565b90509392505050565b600060208201905081810360008301526110fd8184610f48565b905092915050565b6000604082019050818103600083015261111f8185610fb5565b905061112e6020830184610fa6565b9392505050565b6000602082019050818103600083015261114e81610fee565b9050919050565b6000602082019050818103600083015261116e81611011565b9050919050565b6000602082019050818103600083015261118e81611034565b9050919050565b600060208201905081810360008301526111ae81611057565b9050919050565b60006020820190506111ca6000830184611089565b92915050565b60006060820190506111e56000830186611089565b81810360208301526111f78185610fb5565b90506112066040830184610f39565b949350505050565b6000611218611229565b905061122482826113a9565b919050565b6000604051905090565b600067ffffffffffffffff82111561124e5761124d611481565b5b611257826114b0565b9050602081019050919050565b6000819050602082019050919050565b600081519050919050565b600081519050919050565b6000602082019050919050565b600082825260208201905092915050565b600082825260208201905092915050565b60006112c48261132b565b91506112cf8361132b565b9250828210156112e2576112e1611423565b5b828203905092915050565b60006112f88261130b565b9050919050565b60008115159050919050565b600073ffffffffffffffffffffffffffffffffffffffff82169050919050565b6000819050919050565b82818337600083830152505050565b60005b83811015611362578082015181840152602081019050611347565b83811115611371576000848401525b50505050565b6000600282049050600182168061138f57607f821691505b602082108114156113a3576113a2611452565b5b50919050565b6113b2826114b0565b810181811067ffffffffffffffff821117156113d1576113d0611481565b5b80604052505050565b60006113e58261132b565b91507fffffffffffffffffffffffffffffffffffffffffffffffffffffffffffffffff82141561141857611417611423565b5b600182019050919050565b7f4e487b7100000000000000000000000000000000000000000000000000000000600052601160045260246000fd5b7f4e487b7100000000000000000000000000000000000000000000000000000000600052602260045260246000fd5b7f4e487b7100000000000000000000000000000000000000000000000000000000600052604160045260246000fd5b6000601f19601f8301169050919050565b7f4f776e61626c653a206e6577206f776e657220697320746865207a65726f206160008201527f6464726573730000000000000000000000000000000000000000000000000000602082015250565b7f5468697320616374696f6e2063616e206f6e6c7920626520706572666f726d6560008201527f6420627920746865206f776e6572206f66207468652074776565740000000000602082015250565b7f4f776e61626c653a2063616c6c6572206973206e6f7420746865206f776e6572600082015250565b7f54686973207477656574207761732064656c6574656400000000000000000000600082015250565b6115ba816112ed565b81146115c557600080fd5b50565b6115d18161132b565b81146115dc57600080fd5b5056fea264697066735822122088d00f1b8696380faa2d14cc0591990eafeb3b6ad811182770ec2ea7f8c18d2a64736f6c63430008040033",
  "immutableReferences": {},
  "source": "// \"SPDX-License-Identifier: MIT\"\r\n\r\npragma solidity >=0.8.0 <0.9.0;\r\n\r\nimport \"@openzeppelin/contracts/access/Ownable.sol\";\r\n\r\ncontract TwitterClone is Ownable {\r\n    event NewTweet(uint256 tweetId, string tweetText, address owner);\r\n\r\n    struct Tweet{\r\n        string tweetText;\r\n        bool deleted;\r\n    }\r\n    Tweet[] public tweets;\r\n    mapping(uint256 => address) public tweetToOwner;\r\n    mapping(address => uint256) ownerTweetCount;\r\n\r\n    /**\r\n    * @dev A modifier function to check that only the owner of the tweet can call the function and returns an error otherwise \r\n    * @param _tweetId The ID of the tweet to be modified by the function\r\n     */\r\n    modifier ownerOf(uint256 _tweetId){\r\n        require(tweetToOwner[_tweetId] == msg.sender,\r\n        \"This action can only be performed by the owner of the tweet\"\r\n        );\r\n        _;\r\n    }\r\n\r\n\r\n    /**\r\n    * @dev A function that creates a new Tweet given the text\r\n    * @param _tweetText The text of the tweet to be created\r\n     */\r\n    function createTweet(string memory _tweetText) public {\r\n        tweets.push(Tweet(_tweetText, false));\r\n        uint256 tweetId = tweets.length -1;\r\n        tweetToOwner[tweetId] = msg.sender;\r\n        ownerTweetCount[msg.sender]++;\r\n        emit NewTweet(tweetId, _tweetText, msg.sender);\r\n    }\r\n\r\n\r\n    /**\r\n    * @dev A function that returns a Tweet information (owner and text). If the tweet was deleted it returns a warning.\r\n    * @param _tweetId The ID of the tweet to be read\r\n     */\r\n    function readTweet(uint256 _tweetId) public view returns(address owner, string memory tweetText) {\r\n        Tweet memory t = tweets[_tweetId];\r\n        require(t.deleted == false, \"This tweet was deleted\" );\r\n        return (tweetToOwner[_tweetId], t.tweetText);\r\n    }\r\n\r\n\r\n    /**\r\n    * @dev A function that edits a Tweet text with a new text. Only Tweet owner can edit a tweet.\r\n    * @param _tweetId The ID of the tweet to be edited\r\n    * @param _newText The new text for the Tweet after edition\r\n     */\r\n    function editTweet(uint256 _tweetId, string memory _newText) external ownerOf(_tweetId) {\r\n        tweets[_tweetId].tweetText = _newText;\r\n    }\r\n\r\n\r\n    /**\r\n    * @dev A function that mark a Tweet as deleted. Only Tweet owner can edit a tweet.\r\n    * @param _tweetId The ID of the tweet to be deleted\r\n     */\r\n    function deleteTweet(uint256 _tweetId) external ownerOf(_tweetId) {\r\n        tweets[_tweetId].deleted = true;\r\n    }\r\n\r\n\r\n    /**\r\n    * @dev A getter function to access the length of the tweets List.\r\n     */\r\n    function getTweetsLength() public view returns(uint count) {\r\n        return tweets.length;\r\n    }\r\n\r\n\r\n    /**\r\n    * @dev A function that returns the list of tweets for a specific owner.\r\n    * @param _owner the address of the owner for which the function returns the list of their tweets.\r\n     */\r\n    function getTweetsByOwner(address _owner) external view returns(uint[] memory) {\r\n        uint256[] memory result = new uint256[](ownerTweetCount[_owner]);\r\n        uint256 counter = 0;\r\n        for (uint256 i = 0; i< tweets.length; i++){\r\n            if (tweetToOwner[i] == _owner){\r\n                result[counter] = i;\r\n                counter++;\r\n            }\r\n        }\r\n        return result;\r\n    }\r\n\r\n}",
  "sourcePath": "/usr/src/app/contracts/TwitterClone.sol",
  "compiler": {
    "name": "solc",
    "version": "0.8.4+commit.c7e474f2.Emscripten.clang"
  },
  "schemaVersion": "3.3.3",
  "updatedAt": "2021-05-31T12:48:59.017Z",
  "devdoc": {
    "kind": "dev",
    "methods": {
      "createTweet(string)": {
        "details": "A function that creates a new Tweet given the text",
        "params": {
          "_tweetText": "The text of the tweet to be created"
        }
      },
      "deleteTweet(uint256)": {
        "details": "A function that mark a Tweet as deleted. Only Tweet owner can edit a tweet.",
        "params": {
          "_tweetId": "The ID of the tweet to be deleted"
        }
      },
      "editTweet(uint256,string)": {
        "details": "A function that edits a Tweet text with a new text. Only Tweet owner can edit a tweet.",
        "params": {
          "_newText": "The new text for the Tweet after edition",
          "_tweetId": "The ID of the tweet to be edited"
        }
      },
      "getTweetsByOwner(address)": {
        "details": "A function that returns the list of tweets for a specific owner.",
        "params": {
          "_owner": "the address of the owner for which the function returns the list of their tweets."
        }
      },
      "getTweetsLength()": {
        "details": "A getter function to access the length of the tweets List."
      },
      "owner()": {
        "details": "Returns the address of the current owner."
      },
      "readTweet(uint256)": {
        "details": "A function that returns a Tweet information (owner and text). If the tweet was deleted it returns a warning.",
        "params": {
          "_tweetId": "The ID of the tweet to be read"
        }
      },
      "renounceOwnership()": {
        "details": "Leaves the contract without owner. It will not be possible to call `onlyOwner` functions anymore. Can only be called by the current owner. NOTE: Renouncing ownership will leave the contract without an owner, thereby removing any functionality that is only available to the owner."
      },
      "transferOwnership(address)": {
        "details": "Transfers ownership of the contract to a new account (`newOwner`). Can only be called by the current owner."
      }
    },
    "version": 1
  },
  "userdoc": {
    "kind": "user",
    "methods": {},
    "version": 1
  }
}