{
  "contractName": "TwitterClone",
  "abi": [
    {
      "anonymous": false,
      "inputs": [
        {
          "indexed": false,
          "internalType": "uint256",
          "name": "tweetId",
          "type": "uint256"
        },
        {
          "indexed": false,
          "internalType": "string",
          "name": "tweetText",
          "type": "string"
        },
        {
          "indexed": false,
          "internalType": "address",
          "name": "owner",
          "type": "address"
        }
      ],
      "name": "NewTweet",
      "type": "event"
    },
    {
      "anonymous": false,
      "inputs": [
        {
          "indexed": true,
          "internalType": "address",
          "name": "previousOwner",
          "type": "address"
        },
        {
          "indexed": true,
          "internalType": "address",
          "name": "newOwner",
          "type": "address"
        }
      ],
      "name": "OwnershipTransferred",
      "type": "event"
    },
    {
      "inputs": [],
      "name": "owner",
      "outputs": [
        {
          "internalType": "address",
          "name": "",
          "type": "address"
        }
      ],
      "stateMutability": "view",
      "type": "function"
    },
    {
      "inputs": [],
      "name": "renounceOwnership",
      "outputs": [],
      "stateMutability": "nonpayable",
      "type": "function"
    },
    {
      "inputs": [
        {
          "internalType": "address",
          "name": "newOwner",
          "type": "address"
        }
      ],
      "name": "transferOwnership",
      "outputs": [],
      "stateMutability": "nonpayable",
      "type": "function"
    },
    {
      "inputs": [
        {
          "internalType": "uint256",
          "name": "",
          "type": "uint256"
        }
      ],
      "name": "tweetToOwner",
      "outputs": [
        {
          "internalType": "address",
          "name": "",
          "type": "address"
        }
      ],
      "stateMutability": "view",
      "type": "function"
    },
    {
      "inputs": [
        {
          "internalType": "uint256",
          "name": "",
          "type": "uint256"
        }
      ],
      "name": "tweets",
      "outputs": [
        {
          "internalType": "string",
          "name": "tweetText",
          "type": "string"
        },
        {
          "internalType": "bool",
          "name": "deleted",
          "type": "bool"
        }
      ],
      "stateMutability": "view",
      "type": "function"
    },
    {
      "inputs": [
        {
          "internalType": "string",
          "name": "_tweetText",
          "type": "string"
        }
      ],
      "name": "createTweet",
      "outputs": [],
      "stateMutability": "nonpayable",
      "type": "function"
    },
    {
      "inputs": [
        {
          "internalType": "uint256",
          "name": "_tweetId",
          "type": "uint256"
        },
        {
          "internalType": "string",
          "name": "_newText",
          "type": "string"
        }
      ],
      "name": "editTweet",
      "outputs": [],
      "stateMutability": "nonpayable",
      "type": "function"
    },
    {
      "inputs": [
        {
          "internalType": "uint256",
          "name": "_tweetId",
          "type": "uint256"
        }
      ],
      "name": "deleteTweet",
      "outputs": [],
      "stateMutability": "nonpayable",
      "type": "function"
    },
    {
      "inputs": [],
      "name": "getTweetsLength",
      "outputs": [
        {
          "internalType": "uint256",
          "name": "count",
          "type": "uint256"
        }
      ],
      "stateMutability": "view",
      "type": "function"
    },
    {
      "inputs": [
        {
          "internalType": "address",
          "name": "_owner",
          "type": "address"
        }
      ],
      "name": "getTweetsByOwner",
      "outputs": [
        {
          "internalType": "uint256[]",
          "name": "",
          "type": "uint256[]"
        }
      ],
      "stateMutability": "view",
      "type": "function"
    }
  ],
  "bytecode": "0x608060405234801561001057600080fd5b5060006100216100c460201b60201c565b9050806000806101000a81548173ffffffffffffffffffffffffffffffffffffffff021916908373ffffffffffffffffffffffffffffffffffffffff1602179055508073ffffffffffffffffffffffffffffffffffffffff16600073ffffffffffffffffffffffffffffffffffffffff167f8be0079c531659141344cd1fd0a4f28419497f9722a3daafe3b4186f6b6457e060405160405180910390a3506100cc565b600033905090565b6113a7806100db6000396000f3fe608060405234801561001057600080fd5b506004361061009e5760003560e01c80637c9cd2bc116100665780637c9cd2bc146101475780638da5cb5b14610163578063e8d857b014610181578063eae9e135146101b2578063f2fde38b146101ce5761009e565b806341e0d306146100a35780634508726b146100d35780635775912a146100f1578063637b958d1461010d578063715018a61461013d575b600080fd5b6100bd60048036038101906100b89190610cd2565b6101ea565b6040516100ca9190610ea3565b60405180910390f35b6100db61021d565b6040516100e89190610f70565b60405180910390f35b61010b60048036038101906101069190610cd2565b61022a565b005b61012760048036038101906101229190610c68565b610333565b6040516101349190610ebe565b60405180910390f35b6101456104d2565b005b610161600480360381019061015c9190610c91565b61060c565b005b61016b610789565b6040516101789190610ea3565b60405180910390f35b61019b60048036038101906101969190610cd2565b6107b2565b6040516101a9929190610ee0565b60405180910390f35b6101cc60048036038101906101c79190610cfb565b61087b565b005b6101e860048036038101906101e39190610c68565b610982565b005b60026020528060005260406000206000915054906101000a900473ffffffffffffffffffffffffffffffffffffffff1681565b6000600180549050905090565b803373ffffffffffffffffffffffffffffffffffffffff166002600083815260200190815260200160002060009054906101000a900473ffffffffffffffffffffffffffffffffffffffff1673ffffffffffffffffffffffffffffffffffffffff16146102cc576040517f08c379a00000000000000000000000000000000000000000000000000000000081526004016102c390610f30565b60405180910390fd5b6001808381548110610307577f4e487b7100000000000000000000000000000000000000000000000000000000600052603260045260246000fd5b906000526020600020906002020160010160006101000a81548160ff0219169083151502179055505050565b60606000600360008473ffffffffffffffffffffffffffffffffffffffff1673ffffffffffffffffffffffffffffffffffffffff1681526020019081526020016000205467ffffffffffffffff8111156103b6577f4e487b7100000000000000000000000000000000000000000000000000000000600052604160045260246000fd5b6040519080825280602002602001820160405280156103e45781602001602082028036833780820191505090505b5090506000805b6001805490508110156104c7578473ffffffffffffffffffffffffffffffffffffffff166002600083815260200190815260200160002060009054906101000a900473ffffffffffffffffffffffffffffffffffffffff1673ffffffffffffffffffffffffffffffffffffffff1614156104b45780838381518110610499577f4e487b7100000000000000000000000000000000000000000000000000000000600052603260045260246000fd5b60200260200101818152505081806104b090611195565b9250505b80806104bf90611195565b9150506103eb565b508192505050919050565b6104da610b2b565b73ffffffffffffffffffffffffffffffffffffffff166104f8610789565b73ffffffffffffffffffffffffffffffffffffffff161461054e576040517f08c379a000000000000000000000000000000000000000000000000000000000815260040161054590610f50565b60405180910390fd5b600073ffffffffffffffffffffffffffffffffffffffff1660008054906101000a900473ffffffffffffffffffffffffffffffffffffffff1673ffffffffffffffffffffffffffffffffffffffff167f8be0079c531659141344cd1fd0a4f28419497f9722a3daafe3b4186f6b6457e060405160405180910390a360008060006101000a81548173ffffffffffffffffffffffffffffffffffffffff021916908373ffffffffffffffffffffffffffffffffffffffff160217905550565b60016040518060400160405280838152602001600015158152509080600181540180825580915050600190039060005260206000209060020201600090919091909150600082015181600001908051906020019061066b929190610b33565b5060208201518160010160006101000a81548160ff02191690831515021790555050506000600180805490506106a19190611074565b9050336002600083815260200190815260200160002060006101000a81548173ffffffffffffffffffffffffffffffffffffffff021916908373ffffffffffffffffffffffffffffffffffffffff160217905550600360003373ffffffffffffffffffffffffffffffffffffffff1673ffffffffffffffffffffffffffffffffffffffff168152602001908152602001600020600081548092919061074590611195565b91905055507fc8e2844f61fc79ed0959e875976db2e524c8d703f4d52bfc86c73627b63d6e7b81833360405161077d93929190610f8b565b60405180910390a15050565b60008060009054906101000a900473ffffffffffffffffffffffffffffffffffffffff16905090565b600181815481106107c257600080fd5b90600052602060002090600202016000915090508060000180546107e590611132565b80601f016020809104026020016040519081016040528092919081815260200182805461081190611132565b801561085e5780601f106108335761010080835404028352916020019161085e565b820191906000526020600020905b81548152906001019060200180831161084157829003601f168201915b5050505050908060010160009054906101000a900460ff16905082565b813373ffffffffffffffffffffffffffffffffffffffff166002600083815260200190815260200160002060009054906101000a900473ffffffffffffffffffffffffffffffffffffffff1673ffffffffffffffffffffffffffffffffffffffff161461091d576040517f08c379a000000000000000000000000000000000000000000000000000000000815260040161091490610f30565b60405180910390fd5b8160018481548110610958577f4e487b7100000000000000000000000000000000000000000000000000000000600052603260045260246000fd5b9060005260206000209060020201600001908051906020019061097c929190610b33565b50505050565b61098a610b2b565b73ffffffffffffffffffffffffffffffffffffffff166109a8610789565b73ffffffffffffffffffffffffffffffffffffffff16146109fe576040517f08c379a00000000000000000000000000000000000000000000000000000000081526004016109f590610f50565b60405180910390fd5b600073ffffffffffffffffffffffffffffffffffffffff168173ffffffffffffffffffffffffffffffffffffffff161415610a6e576040517f08c379a0000000000000000000000000000000000000000000000000000000008152600401610a6590610f10565b60405180910390fd5b8073ffffffffffffffffffffffffffffffffffffffff1660008054906101000a900473ffffffffffffffffffffffffffffffffffffffff1673ffffffffffffffffffffffffffffffffffffffff167f8be0079c531659141344cd1fd0a4f28419497f9722a3daafe3b4186f6b6457e060405160405180910390a3806000806101000a81548173ffffffffffffffffffffffffffffffffffffffff021916908373ffffffffffffffffffffffffffffffffffffffff16021790555050565b600033905090565b828054610b3f90611132565b90600052602060002090601f016020900481019282610b615760008555610ba8565b82601f10610b7a57805160ff1916838001178555610ba8565b82800160010185558215610ba8579182015b82811115610ba7578251825591602001919060010190610b8c565b5b509050610bb59190610bb9565b5090565b5b80821115610bd2576000816000905550600101610bba565b5090565b6000610be9610be484610fee565b610fc9565b905082815260208101848484011115610c0157600080fd5b610c0c8482856110f0565b509392505050565b600081359050610c2381611343565b92915050565b600082601f830112610c3a57600080fd5b8135610c4a848260208601610bd6565b91505092915050565b600081359050610c628161135a565b92915050565b600060208284031215610c7a57600080fd5b6000610c8884828501610c14565b91505092915050565b600060208284031215610ca357600080fd5b600082013567ffffffffffffffff811115610cbd57600080fd5b610cc984828501610c29565b91505092915050565b600060208284031215610ce457600080fd5b6000610cf284828501610c53565b91505092915050565b60008060408385031215610d0e57600080fd5b6000610d1c85828601610c53565b925050602083013567ffffffffffffffff811115610d3957600080fd5b610d4585828601610c29565b9150509250929050565b6000610d5b8383610e85565b60208301905092915050565b610d70816110a8565b82525050565b6000610d818261102f565b610d8b8185611052565b9350610d968361101f565b8060005b83811015610dc7578151610dae8882610d4f565b9750610db983611045565b925050600181019050610d9a565b5085935050505092915050565b610ddd816110ba565b82525050565b6000610dee8261103a565b610df88185611063565b9350610e088185602086016110ff565b610e118161126b565b840191505092915050565b6000610e29602683611063565b9150610e348261127c565b604082019050919050565b6000610e4c603b83611063565b9150610e57826112cb565b604082019050919050565b6000610e6f602083611063565b9150610e7a8261131a565b602082019050919050565b610e8e816110e6565b82525050565b610e9d816110e6565b82525050565b6000602082019050610eb86000830184610d67565b92915050565b60006020820190508181036000830152610ed88184610d76565b905092915050565b60006040820190508181036000830152610efa8185610de3565b9050610f096020830184610dd4565b9392505050565b60006020820190508181036000830152610f2981610e1c565b9050919050565b60006020820190508181036000830152610f4981610e3f565b9050919050565b60006020820190508181036000830152610f6981610e62565b9050919050565b6000602082019050610f856000830184610e94565b92915050565b6000606082019050610fa06000830186610e94565b8181036020830152610fb28185610de3565b9050610fc16040830184610d67565b949350505050565b6000610fd3610fe4565b9050610fdf8282611164565b919050565b6000604051905090565b600067ffffffffffffffff8211156110095761100861123c565b5b6110128261126b565b9050602081019050919050565b6000819050602082019050919050565b600081519050919050565b600081519050919050565b6000602082019050919050565b600082825260208201905092915050565b600082825260208201905092915050565b600061107f826110e6565b915061108a836110e6565b92508282101561109d5761109c6111de565b5b828203905092915050565b60006110b3826110c6565b9050919050565b60008115159050919050565b600073ffffffffffffffffffffffffffffffffffffffff82169050919050565b6000819050919050565b82818337600083830152505050565b60005b8381101561111d578082015181840152602081019050611102565b8381111561112c576000848401525b50505050565b6000600282049050600182168061114a57607f821691505b6020821081141561115e5761115d61120d565b5b50919050565b61116d8261126b565b810181811067ffffffffffffffff8211171561118c5761118b61123c565b5b80604052505050565b60006111a0826110e6565b91507fffffffffffffffffffffffffffffffffffffffffffffffffffffffffffffffff8214156111d3576111d26111de565b5b600182019050919050565b7f4e487b7100000000000000000000000000000000000000000000000000000000600052601160045260246000fd5b7f4e487b7100000000000000000000000000000000000000000000000000000000600052602260045260246000fd5b7f4e487b7100000000000000000000000000000000000000000000000000000000600052604160045260246000fd5b6000601f19601f8301169050919050565b7f4f776e61626c653a206e6577206f776e657220697320746865207a65726f206160008201527f6464726573730000000000000000000000000000000000000000000000000000602082015250565b7f5468697320616374696f6e2063616e206f6e6c7920626520706572666f726d6560008201527f6420627920746865206f776e6572206f66207468652074776565740000000000602082015250565b7f4f776e61626c653a2063616c6c6572206973206e6f7420746865206f776e6572600082015250565b61134c816110a8565b811461135757600080fd5b50565b611363816110e6565b811461136e57600080fd5b5056fea2646970667358221220670a5d8776e18fe4dddc9d529417b90b38f8fd8c1ec85b6a05f3cfd92eb38b1764736f6c63430008040033",
  "immutableReferences": {},
  "source": "// \"SPDX-License-Identifier: MIT\"\r\n\r\npragma solidity >=0.8.0 <0.9.0;\r\n\r\nimport \"@openzeppelin/contracts/access/Ownable.sol\";\r\n\r\ncontract TwitterClone is Ownable {\r\n    event NewTweet(uint256 tweetId, string tweetText, address owner);\r\n\r\n    struct Tweet{\r\n        string tweetText;\r\n        bool deleted;\r\n    }\r\n    Tweet[] public tweets;\r\n    mapping(uint256 => address) public tweetToOwner;\r\n    mapping(address => uint256) ownerTweetCount;\r\n\r\n    modifier ownerOf(uint256 _tweetId){\r\n        require(tweetToOwner[_tweetId] == msg.sender,\r\n        \"This action can only be performed by the owner of the tweet\"\r\n        );\r\n        _;\r\n    }\r\n\r\n    /**\r\n    * @dev A function that creates a new Tweet given the text\r\n    * @param _tweetText The text of the tweet to be created\r\n     */\r\n    function createTweet(string memory _tweetText) public {\r\n        tweets.push(Tweet(_tweetText, false));\r\n        uint256 tweetId = tweets.length -1;\r\n        tweetToOwner[tweetId] = msg.sender;\r\n        ownerTweetCount[msg.sender]++;\r\n        emit NewTweet(tweetId, _tweetText, msg.sender);\r\n    }\r\n\r\n    /**\r\n    * @dev A function that edits a Tweet text with a new text. Only Tweet owner can edit a tweet.\r\n    * @param _tweetId The ID of the tweet to be edited\r\n    * @param _newText The new text for the Tweet after edition\r\n     */\r\n    function editTweet(uint256 _tweetId, string memory _newText) external ownerOf(_tweetId) {\r\n        tweets[_tweetId].tweetText = _newText;\r\n    }\r\n\r\n    /**\r\n    * @dev A function that mark a Tweet as deleted. Only Tweet owner can edit a tweet.\r\n    * @param _tweetId The ID of the tweet to be deleted\r\n     */\r\n    function deleteTweet(uint256 _tweetId) external ownerOf(_tweetId) {\r\n        tweets[_tweetId].deleted = true;\r\n    }\r\n\r\n    function getTweetsLength() public view returns(uint count) {\r\n        return tweets.length;\r\n    }\r\n\r\n    function getTweetsByOwner(address _owner) external view returns(uint[] memory) {\r\n        uint256[] memory result = new uint256[](ownerTweetCount[_owner]);\r\n        uint256 counter = 0;\r\n        for (uint256 i = 0; i< tweets.length; i++){\r\n            if (tweetToOwner[i] == _owner){\r\n                result[counter] = i;\r\n                counter++;\r\n            }\r\n        }\r\n        return result;\r\n    }\r\n\r\n}",
  "sourcePath": "C:/Users/je2f_/cryptoTwitter/contracts/TwitterClone.sol",
  "compiler": {
    "name": "solc",
    "version": "0.8.4+commit.c7e474f2.Emscripten.clang"
  },
  "schemaVersion": "3.4.0",
  "updatedAt": "2021-05-26T12:39:50.627Z",
  "devdoc": {
    "kind": "dev",
    "methods": {
      "createTweet(string)": {
        "details": "A function that creates a new Tweet given the text",
        "params": {
          "_tweetText": "The text of the tweet to be created"
        }
      },
      "deleteTweet(uint256)": {
        "details": "A function that mark a Tweet as deleted. Only Tweet owner can edit a tweet.",
        "params": {
          "_tweetId": "The ID of the tweet to be deleted"
        }
      },
      "editTweet(uint256,string)": {
        "details": "A function that edits a Tweet text with a new text. Only Tweet owner can edit a tweet.",
        "params": {
          "_newText": "The new text for the Tweet after edition",
          "_tweetId": "The ID of the tweet to be edited"
        }
      },
      "owner()": {
        "details": "Returns the address of the current owner."
      },
      "renounceOwnership()": {
        "details": "Leaves the contract without owner. It will not be possible to call `onlyOwner` functions anymore. Can only be called by the current owner. NOTE: Renouncing ownership will leave the contract without an owner, thereby removing any functionality that is only available to the owner."
      },
      "transferOwnership(address)": {
        "details": "Transfers ownership of the contract to a new account (`newOwner`). Can only be called by the current owner."
      }
    },
    "version": 1
  },
  "userdoc": {
    "kind": "user",
    "methods": {},
    "version": 1
  }
}