{
  "contractName": "TwitterClone",
  "abi": [
    {
      "anonymous": false,
      "inputs": [
        {
          "indexed": false,
          "internalType": "uint256",
          "name": "tweetId",
          "type": "uint256"
        },
        {
          "indexed": false,
          "internalType": "string",
          "name": "tweetText",
          "type": "string"
        }
      ],
      "name": "NewTweet",
      "type": "event"
    },
    {
      "anonymous": false,
      "inputs": [
        {
          "indexed": true,
          "internalType": "address",
          "name": "previousOwner",
          "type": "address"
        },
        {
          "indexed": true,
          "internalType": "address",
          "name": "newOwner",
          "type": "address"
        }
      ],
      "name": "OwnershipTransferred",
      "type": "event"
    },
    {
      "inputs": [],
      "name": "owner",
      "outputs": [
        {
          "internalType": "address",
          "name": "",
          "type": "address"
        }
      ],
      "stateMutability": "view",
      "type": "function",
      "constant": true
    },
    {
      "inputs": [],
      "name": "renounceOwnership",
      "outputs": [],
      "stateMutability": "nonpayable",
      "type": "function"
    },
    {
      "inputs": [
        {
          "internalType": "address",
          "name": "newOwner",
          "type": "address"
        }
      ],
      "name": "transferOwnership",
      "outputs": [],
      "stateMutability": "nonpayable",
      "type": "function"
    },
    {
      "inputs": [
        {
          "internalType": "uint256",
          "name": "",
          "type": "uint256"
        }
      ],
      "name": "tweets",
      "outputs": [
        {
          "internalType": "string",
          "name": "tweetText",
          "type": "string"
        },
        {
          "internalType": "bool",
          "name": "deleted",
          "type": "bool"
        }
      ],
      "stateMutability": "view",
      "type": "function",
      "constant": true
    },
    {
      "inputs": [
        {
          "internalType": "string",
          "name": "_tweetText",
          "type": "string"
        }
      ],
      "name": "createTweet",
      "outputs": [],
      "stateMutability": "nonpayable",
      "type": "function"
    },
    {
      "inputs": [
        {
          "components": [
            {
              "internalType": "string",
              "name": "tweetText",
              "type": "string"
            },
            {
              "internalType": "bool",
              "name": "deleted",
              "type": "bool"
            }
          ],
          "internalType": "struct TwitterClone.Tweet",
          "name": "_tweet",
          "type": "tuple"
        },
        {
          "internalType": "string",
          "name": "_newText",
          "type": "string"
        }
      ],
      "name": "editTweet",
      "outputs": [],
      "stateMutability": "view",
      "type": "function",
      "constant": true
    },
    {
      "inputs": [
        {
          "components": [
            {
              "internalType": "string",
              "name": "tweetText",
              "type": "string"
            },
            {
              "internalType": "bool",
              "name": "deleted",
              "type": "bool"
            }
          ],
          "internalType": "struct TwitterClone.Tweet",
          "name": "_tweet",
          "type": "tuple"
        }
      ],
      "name": "deleteTweet",
      "outputs": [],
      "stateMutability": "view",
      "type": "function",
      "constant": true
    },
    {
      "inputs": [],
      "name": "getTweetsLength",
      "outputs": [
        {
          "internalType": "uint256",
          "name": "count",
          "type": "uint256"
        }
      ],
      "stateMutability": "view",
      "type": "function",
      "constant": true
    }
  ],
  "bytecode": "0x608060405234801561001057600080fd5b5060006100216100c460201b60201c565b9050806000806101000a81548173ffffffffffffffffffffffffffffffffffffffff021916908373ffffffffffffffffffffffffffffffffffffffff1602179055508073ffffffffffffffffffffffffffffffffffffffff16600073ffffffffffffffffffffffffffffffffffffffff167f8be0079c531659141344cd1fd0a4f28419497f9722a3daafe3b4186f6b6457e060405160405180910390a3506100cc565b600033905090565b610edf806100db6000396000f3fe608060405234801561001057600080fd5b50600436106100885760003560e01c80637c9cd2bc1161005b5780637c9cd2bc146100ed5780638da5cb5b14610109578063e8d857b014610127578063f2fde38b1461015857610088565b8063401d0ecf1461008d5780634508726b146100a9578063715018a6146100c75780637bd4f227146100d1575b600080fd5b6100a760048036038101906100a291906109a4565b610174565b005b6100b16101fd565b6040516100be9190610b70565b60405180910390f35b6100cf61020a565b005b6100eb60048036038101906100e69190610963565b610344565b005b61010760048036038101906101029190610922565b6103d4565b005b6101116104a8565b60405161011e9190610ae5565b60405180910390f35b610141600480360381019061013c9190610a10565b6104d1565b60405161014f929190610b00565b60405180910390f35b610172600480360381019061016d91906108f9565b61059a565b005b61017c610743565b73ffffffffffffffffffffffffffffffffffffffff1661019a6104a8565b73ffffffffffffffffffffffffffffffffffffffff16146101f0576040517f08c379a00000000000000000000000000000000000000000000000000000000081526004016101e790610b50565b60405180910390fd5b8082600001819052505050565b6000600180549050905090565b610212610743565b73ffffffffffffffffffffffffffffffffffffffff166102306104a8565b73ffffffffffffffffffffffffffffffffffffffff1614610286576040517f08c379a000000000000000000000000000000000000000000000000000000000815260040161027d90610b50565b60405180910390fd5b600073ffffffffffffffffffffffffffffffffffffffff1660008054906101000a900473ffffffffffffffffffffffffffffffffffffffff1673ffffffffffffffffffffffffffffffffffffffff167f8be0079c531659141344cd1fd0a4f28419497f9722a3daafe3b4186f6b6457e060405160405180910390a360008060006101000a81548173ffffffffffffffffffffffffffffffffffffffff021916908373ffffffffffffffffffffffffffffffffffffffff160217905550565b61034c610743565b73ffffffffffffffffffffffffffffffffffffffff1661036a6104a8565b73ffffffffffffffffffffffffffffffffffffffff16146103c0576040517f08c379a00000000000000000000000000000000000000000000000000000000081526004016103b790610b50565b60405180910390fd5b600181602001901515908115158152505050565b60016040518060400160405280838152602001600015158152509080600181540180825580915050600190039060005260206000209060020201600090919091909150600082015181600001908051906020019061043392919061074b565b5060208201518160010160006101000a81548160ff02191690831515021790555050506000600180805490506104699190610c2d565b90507fedecc4f6066262b45e883a320492540cef377d7c3af8e018558a37a9000299d9818360405161049c929190610b8b565b60405180910390a15050565b60008060009054906101000a900473ffffffffffffffffffffffffffffffffffffffff16905090565b600181815481106104e157600080fd5b906000526020600020906002020160009150905080600001805461050490610ceb565b80601f016020809104026020016040519081016040528092919081815260200182805461053090610ceb565b801561057d5780601f106105525761010080835404028352916020019161057d565b820191906000526020600020905b81548152906001019060200180831161056057829003601f168201915b5050505050908060010160009054906101000a900460ff16905082565b6105a2610743565b73ffffffffffffffffffffffffffffffffffffffff166105c06104a8565b73ffffffffffffffffffffffffffffffffffffffff1614610616576040517f08c379a000000000000000000000000000000000000000000000000000000000815260040161060d90610b50565b60405180910390fd5b600073ffffffffffffffffffffffffffffffffffffffff168173ffffffffffffffffffffffffffffffffffffffff161415610686576040517f08c379a000000000000000000000000000000000000000000000000000000000815260040161067d90610b30565b60405180910390fd5b8073ffffffffffffffffffffffffffffffffffffffff1660008054906101000a900473ffffffffffffffffffffffffffffffffffffffff1673ffffffffffffffffffffffffffffffffffffffff167f8be0079c531659141344cd1fd0a4f28419497f9722a3daafe3b4186f6b6457e060405160405180910390a3806000806101000a81548173ffffffffffffffffffffffffffffffffffffffff021916908373ffffffffffffffffffffffffffffffffffffffff16021790555050565b600033905090565b82805461075790610ceb565b90600052602060002090601f01602090048101928261077957600085556107c0565b82601f1061079257805160ff19168380011785556107c0565b828001600101855582156107c0579182015b828111156107bf5782518255916020019190600101906107a4565b5b5090506107cd91906107d1565b5090565b5b808211156107ea5760008160009055506001016107d2565b5090565b60006108016107fc84610be0565b610bbb565b90508281526020810184848401111561081957600080fd5b610824848285610ca9565b509392505050565b60008135905061083b81610e64565b92915050565b60008135905061085081610e7b565b92915050565b600082601f83011261086757600080fd5b81356108778482602086016107ee565b91505092915050565b60006040828403121561089257600080fd5b61089c6040610bbb565b9050600082013567ffffffffffffffff8111156108b857600080fd5b6108c484828501610856565b60008301525060206108d884828501610841565b60208301525092915050565b6000813590506108f381610e92565b92915050565b60006020828403121561090b57600080fd5b60006109198482850161082c565b91505092915050565b60006020828403121561093457600080fd5b600082013567ffffffffffffffff81111561094e57600080fd5b61095a84828501610856565b91505092915050565b60006020828403121561097557600080fd5b600082013567ffffffffffffffff81111561098f57600080fd5b61099b84828501610880565b91505092915050565b600080604083850312156109b757600080fd5b600083013567ffffffffffffffff8111156109d157600080fd5b6109dd85828601610880565b925050602083013567ffffffffffffffff8111156109fa57600080fd5b610a0685828601610856565b9150509250929050565b600060208284031215610a2257600080fd5b6000610a30848285016108e4565b91505092915050565b610a4281610c61565b82525050565b610a5181610c73565b82525050565b6000610a6282610c11565b610a6c8185610c1c565b9350610a7c818560208601610cb8565b610a8581610ddb565b840191505092915050565b6000610a9d602683610c1c565b9150610aa882610dec565b604082019050919050565b6000610ac0602083610c1c565b9150610acb82610e3b565b602082019050919050565b610adf81610c9f565b82525050565b6000602082019050610afa6000830184610a39565b92915050565b60006040820190508181036000830152610b1a8185610a57565b9050610b296020830184610a48565b9392505050565b60006020820190508181036000830152610b4981610a90565b9050919050565b60006020820190508181036000830152610b6981610ab3565b9050919050565b6000602082019050610b856000830184610ad6565b92915050565b6000604082019050610ba06000830185610ad6565b8181036020830152610bb28184610a57565b90509392505050565b6000610bc5610bd6565b9050610bd18282610d1d565b919050565b6000604051905090565b600067ffffffffffffffff821115610bfb57610bfa610dac565b5b610c0482610ddb565b9050602081019050919050565b600081519050919050565b600082825260208201905092915050565b6000610c3882610c9f565b9150610c4383610c9f565b925082821015610c5657610c55610d4e565b5b828203905092915050565b6000610c6c82610c7f565b9050919050565b60008115159050919050565b600073ffffffffffffffffffffffffffffffffffffffff82169050919050565b6000819050919050565b82818337600083830152505050565b60005b83811015610cd6578082015181840152602081019050610cbb565b83811115610ce5576000848401525b50505050565b60006002820490506001821680610d0357607f821691505b60208210811415610d1757610d16610d7d565b5b50919050565b610d2682610ddb565b810181811067ffffffffffffffff82111715610d4557610d44610dac565b5b80604052505050565b7f4e487b7100000000000000000000000000000000000000000000000000000000600052601160045260246000fd5b7f4e487b7100000000000000000000000000000000000000000000000000000000600052602260045260246000fd5b7f4e487b7100000000000000000000000000000000000000000000000000000000600052604160045260246000fd5b6000601f19601f8301169050919050565b7f4f776e61626c653a206e6577206f776e657220697320746865207a65726f206160008201527f6464726573730000000000000000000000000000000000000000000000000000602082015250565b7f4f776e61626c653a2063616c6c6572206973206e6f7420746865206f776e6572600082015250565b610e6d81610c61565b8114610e7857600080fd5b50565b610e8481610c73565b8114610e8f57600080fd5b50565b610e9b81610c9f565b8114610ea657600080fd5b5056fea264697066735822122035a847d8d194b496befa918bb85e214ff86bd24a66d7fc39fa4096ee42b0b1f564736f6c63430008040033",
  "immutableReferences": {},
  "source": "// \"SPDX-License-Identifier: MIT\"\r\n\r\npragma solidity >=0.8.0 <0.9.0;\r\n\r\nimport \"@openzeppelin/contracts/access/Ownable.sol\";\r\n\r\ncontract TwitterClone is Ownable {\r\n    event NewTweet(uint256 tweetId, string tweetText);\r\n\r\n    struct Tweet{\r\n        string tweetText;\r\n        bool deleted;\r\n    }\r\n    Tweet[] public tweets;\r\n\r\n    /**\r\n    * @dev A function that creates a new Tweet given the text\r\n    * @param _tweetText The text of the tweet to be created\r\n     */\r\n    function createTweet(string memory _tweetText) public {\r\n        tweets.push(Tweet(_tweetText, false));\r\n        uint256 tweetId = tweets.length -1;\r\n        emit NewTweet(tweetId, _tweetText);\r\n    }\r\n\r\n    /**\r\n    * @dev A function that edits a Tweet text with a new text. Only Tweet owner can edit a tweet.\r\n    * @param _tweet The tweet to be edited\r\n    * @param _newText The new text for the Tweet after edition\r\n     */\r\n    function editTweet(Tweet memory _tweet, string memory _newText) external view onlyOwner {\r\n        _tweet.tweetText = _newText;\r\n    }\r\n\r\n    /**\r\n    * @dev A function that mark a Tweet as deleted. Only Tweet owner can edit a tweet.\r\n    * @param _tweet The tweet to be deleted\r\n     */\r\n\r\n    function deleteTweet(Tweet memory _tweet) external view onlyOwner {\r\n        _tweet.deleted = true;\r\n    }\r\n\r\n    function getTweetsLength() public view returns(uint count) {\r\n        return tweets.length;\r\n    }\r\n\r\n}",
  "sourcePath": "C:/Users/je2f_/cryptoTwitter/contracts/TwitterClone.sol",
  "compiler": {
    "name": "solc",
    "version": "0.8.4+commit.c7e474f2.Emscripten.clang"
  },
  "schemaVersion": "3.4.0",
  "updatedAt": "2021-05-24T14:46:13.848Z",
  "networkType": "ethereum",
  "devdoc": {
    "kind": "dev",
    "methods": {
      "createTweet(string)": {
        "details": "A function that creates a new Tweet given the text",
        "params": {
          "_tweetText": "The text of the tweet to be created"
        }
      },
      "deleteTweet((string,bool))": {
        "details": "A function that mark a Tweet as deleted. Only Tweet owner can edit a tweet.",
        "params": {
          "_tweet": "The tweet to be deleted"
        }
      },
      "editTweet((string,bool),string)": {
        "details": "A function that edits a Tweet text with a new text. Only Tweet owner can edit a tweet.",
        "params": {
          "_newText": "The new text for the Tweet after edition",
          "_tweet": "The tweet to be edited"
        }
      },
      "owner()": {
        "details": "Returns the address of the current owner."
      },
      "renounceOwnership()": {
        "details": "Leaves the contract without owner. It will not be possible to call `onlyOwner` functions anymore. Can only be called by the current owner. NOTE: Renouncing ownership will leave the contract without an owner, thereby removing any functionality that is only available to the owner."
      },
      "transferOwnership(address)": {
        "details": "Transfers ownership of the contract to a new account (`newOwner`). Can only be called by the current owner."
      }
    },
    "version": 1
  },
  "userdoc": {
    "kind": "user",
    "methods": {},
    "version": 1
  }
}